{
  "_format": "hh-sol-artifact-1",
  "contractName": "VotePortal",
  "sourceName": "contracts/VotePortal.sol",
  "abi": [
    {
      "inputs": [],
      "stateMutability": "payable",
      "type": "constructor"
    },
    {
      "anonymous": false,
      "inputs": [
        {
          "indexed": true,
          "internalType": "address",
          "name": "from",
          "type": "address"
        },
        {
          "indexed": false,
          "internalType": "uint256",
          "name": "timestamp",
          "type": "uint256"
        },
        {
          "indexed": false,
          "internalType": "bool",
          "name": "firstVote",
          "type": "bool"
        }
      ],
      "name": "NewVoteEvent",
      "type": "event"
    },
    {
      "inputs": [],
      "name": "downvote",
      "outputs": [
        {
          "internalType": "bool",
          "name": "",
          "type": "bool"
        }
      ],
      "stateMutability": "nonpayable",
      "type": "function"
    },
    {
      "inputs": [],
      "name": "getResult",
      "outputs": [
        {
          "internalType": "int256",
          "name": "_tally",
          "type": "int256"
        },
        {
          "internalType": "uint256",
          "name": "_totalVotes",
          "type": "uint256"
        }
      ],
      "stateMutability": "view",
      "type": "function"
    },
    {
      "inputs": [],
      "name": "getVote",
      "outputs": [
        {
          "components": [
            {
              "internalType": "uint256",
              "name": "timestamp",
              "type": "uint256"
            },
            {
              "internalType": "int8",
              "name": "direction",
              "type": "int8"
            }
          ],
          "internalType": "struct VotePortal.Vote",
          "name": "",
          "type": "tuple"
        }
      ],
      "stateMutability": "view",
      "type": "function"
    },
    {
      "inputs": [],
      "name": "getVoteEvents",
      "outputs": [
        {
          "components": [
            {
              "internalType": "address",
              "name": "voter",
              "type": "address"
            },
            {
              "internalType": "uint256",
              "name": "timestamp",
              "type": "uint256"
            },
            {
              "internalType": "bool",
              "name": "firstVote",
              "type": "bool"
            }
          ],
          "internalType": "struct VotePortal.VoteEvent[]",
          "name": "",
          "type": "tuple[]"
        }
      ],
      "stateMutability": "view",
      "type": "function"
    },
    {
      "inputs": [],
      "name": "upvote",
      "outputs": [
        {
          "internalType": "bool",
          "name": "",
          "type": "bool"
        }
      ],
      "stateMutability": "nonpayable",
      "type": "function"
    }
  ],
  "bytecode": "0x60806040526200004f6040518060400160405280601781526020017f736d61727465737420636f6e747261637420616c6976650000000000000000008152506200007760201b6200048e1760201c565b606444426200005f9190620001c4565b6200006b919062000261565b60048190555062000308565b62000117816040516024016200008e919062000184565b6040516020818303038152906040527f41304fac000000000000000000000000000000000000000000000000000000007bffffffffffffffffffffffffffffffffffffffffffffffffffffffff19166020820180517bffffffffffffffffffffffffffffffffffffffffffffffffffffffff83818316178352505050506200011a60201b60201c565b50565b60008151905060006a636f6e736f6c652e6c6f679050602083016000808483855afa5050505050565b60006200015082620001a8565b6200015c8185620001b3565b93506200016e8185602086016200022b565b6200017981620002f7565b840191505092915050565b60006020820190508181036000830152620001a0818462000143565b905092915050565b600081519050919050565b600082825260208201905092915050565b6000620001d18262000221565b9150620001de8362000221565b9250827fffffffffffffffffffffffffffffffffffffffffffffffffffffffffffffffff0382111562000216576200021562000299565b5b828201905092915050565b6000819050919050565b60005b838110156200024b5780820151818401526020810190506200022e565b838111156200025b576000848401525b50505050565b60006200026e8262000221565b91506200027b8362000221565b9250826200028e576200028d620002c8565b5b828206905092915050565b7f4e487b7100000000000000000000000000000000000000000000000000000000600052601160045260246000fd5b7f4e487b7100000000000000000000000000000000000000000000000000000000600052601260045260246000fd5b6000601f19601f8301169050919050565b6112a880620003186000396000f3fe608060405234801561001057600080fd5b50600436106100575760003560e01c80630242f3511461005c57806392d7727c1461007a578063a8df84df14610098578063de292789146100b6578063fc0a18ff146100d5575b600080fd5b6100646100f3565b6040516100719190610e20565b60405180910390f35b610082610170565b60405161008f9190610d2a565b60405180910390f35b6100a061027e565b6040516100ad9190610d2a565b60405180910390f35b6100be6103a3565b6040516100cc929190610d45565b60405180910390f35b6100dd6103b4565b6040516100ea9190610d08565b60405180910390f35b6100fb610ab3565b6000803373ffffffffffffffffffffffffffffffffffffffff1673ffffffffffffffffffffffffffffffffffffffff168152602001908152602001600020604051806040016040529081600082015481526020016001820160009054906101000a900460000b60000b60000b81525050905090565b60008061017b6100f3565b905060006001905061018b610527565b6001826020015160000b14156101e5576101da6040518060400160405280601681526020017f257320686173207570766f74656420616c72656164790000000000000000000081525033610589565b60009250505061027b565b7fffffffffffffffffffffffffffffffffffffffffffffffffffffffffffffffff826020015160000b14156102225761021d82610625565b600090505b61022d600182610728565b61026c6040518060400160405280601181526020017f257320686173207570766f746564203a2900000000000000000000000000000081525033610589565b61027461090a565b6001925050505b90565b6000806102896100f3565b9050600060019050610299610527565b7fffffffffffffffffffffffffffffffffffffffffffffffffffffffffffffffff826020015160000b1415610312576103076040518060400160405280601881526020017f25732068617320646f776e766f74656420616c7265616479000000000000000081525033610589565b6000925050506103a0565b6001826020015160000b14156103305761032b82610625565b600090505b61035a7fffffffffffffffffffffffffffffffffffffffffffffffffffffffffffffffff82610728565b6103996040518060400160405280601381526020017f25732068617320646f776e766f746564203a280000000000000000000000000081525033610589565b6001925050505b90565b600080600354600254915091509091565b60606001805480602002602001604051908101604052809291908181526020016000905b8282101561048557838290600052602060002090600302016040518060600160405290816000820160009054906101000a900473ffffffffffffffffffffffffffffffffffffffff1673ffffffffffffffffffffffffffffffffffffffff1673ffffffffffffffffffffffffffffffffffffffff168152602001600182015481526020016002820160009054906101000a900460ff161515151581525050815260200190600101906103d8565b50505050905090565b610524816040516024016104a29190610d6e565b6040516020818303038152906040527f41304fac000000000000000000000000000000000000000000000000000000007bffffffffffffffffffffffffffffffffffffffffffffffffffffffff19166020820180517bffffffffffffffffffffffffffffffffffffffffffffffffffffffff8381831617835250505050610a8a565b50565b60006105316100f3565b90504261012c82600001516105469190610f58565b10610586576040517f08c379a000000000000000000000000000000000000000000000000000000000815260040161057d90610dc0565b60405180910390fd5b50565b610621828260405160240161059f929190610d90565b6040516020818303038152906040527f319af333000000000000000000000000000000000000000000000000000000007bffffffffffffffffffffffffffffffffffffffffffffffffffffffff19166020820180517bffffffffffffffffffffffffffffffffffffffffffffffffffffffff8381831617835250505050610a8a565b5050565b6106646040518060400160405280601581526020017f2573206368616e676564207468656972206d696e64000000000000000000000081525033610589565b806020015160000b6003600082825461067d9190610fae565b925050819055506001600260008282546106979190611042565b9250508190555060405180604001604052804281526020016000800b8152506000803373ffffffffffffffffffffffffffffffffffffffff1673ffffffffffffffffffffffffffffffffffffffff1681526020019081526020016000206000820151816000015560208201518160010160006101000a81548160ff021916908360000b60ff16021790555090505050565b60405180604001604052804281526020018360000b8152506000803373ffffffffffffffffffffffffffffffffffffffff1673ffffffffffffffffffffffffffffffffffffffff1681526020019081526020016000206000820151816000015560208201518160010160006101000a81548160ff021916908360000b60ff1602179055509050508160000b600360008282546107c49190610ec4565b925050819055506001600260008282546107de9190610f58565b92505081905550600160405180606001604052803373ffffffffffffffffffffffffffffffffffffffff168152602001428152602001831515815250908060018154018082558091505060019003906000526020600020906003020160009091909190915060008201518160000160006101000a81548173ffffffffffffffffffffffffffffffffffffffff021916908373ffffffffffffffffffffffffffffffffffffffff1602179055506020820151816001015560408201518160020160006101000a81548160ff02191690831515021790555050503373ffffffffffffffffffffffffffffffffffffffff167f5faf08440fbbfa289a75cffaa54c1b93b3fc63bad86488fcca5313cb02a74eb542836040516108fe929190610e3b565b60405180910390a25050565b6064600454424461091b9190610f58565b6109259190610f58565b61092f9190611108565b60048190555060556004541161094457610a88565b600066038d7ea4c68000905047811115610993576040517f08c379a000000000000000000000000000000000000000000000000000000000815260040161098a90610e00565b60405180910390fd5b60003373ffffffffffffffffffffffffffffffffffffffff16826040516109b990610cf3565b60006040518083038185875af1925050503d80600081146109f6576040519150601f19603f3d011682016040523d82523d6000602084013e6109fb565b606091505b5050905080610a3f576040517f08c379a0000000000000000000000000000000000000000000000000000000008152600401610a3690610de0565b60405180910390fd5b8015610a8557610a846040518060400160405280601681526020017f7961792c20257320776f6e2074686520726166666c650000000000000000000081525033610589565b5b50505b565b60008151905060006a636f6e736f6c652e6c6f679050602083016000808483855afa5050505050565b6040518060400160405280600081526020016000800b81525090565b6000610adb8383610c64565b60608301905092915050565b610af081611076565b82525050565b610aff81611076565b82525050565b6000610b1082610e74565b610b1a8185610e97565b9350610b2583610e64565b8060005b83811015610b56578151610b3d8882610acf565b9750610b4883610e8a565b925050600181019050610b29565b5085935050505092915050565b610b6c81611088565b82525050565b610b7b81611088565b82525050565b610b8a81611094565b82525050565b610b998161109e565b82525050565b6000610baa82610e7f565b610bb48185610eb3565b9350610bc48185602086016110d5565b610bcd81611197565b840191505092915050565b6000610be5600c83610eb3565b9150610bf0826111a8565b602082019050919050565b6000610c08602783610eb3565b9150610c13826111d1565b604082019050919050565b6000610c2b600083610ea8565b9150610c3682611220565b600082019050919050565b6000610c4e602c83610eb3565b9150610c5982611223565b604082019050919050565b606082016000820151610c7a6000850182610ae7565b506020820151610c8d6020850182610cd5565b506040820151610ca06040850182610b63565b50505050565b604082016000820151610cbc6000850182610cd5565b506020820151610ccf6020850182610b90565b50505050565b610cde816110cb565b82525050565b610ced816110cb565b82525050565b6000610cfe82610c1e565b9150819050919050565b60006020820190508181036000830152610d228184610b05565b905092915050565b6000602082019050610d3f6000830184610b72565b92915050565b6000604082019050610d5a6000830185610b81565b610d676020830184610ce4565b9392505050565b60006020820190508181036000830152610d888184610b9f565b905092915050565b60006040820190508181036000830152610daa8185610b9f565b9050610db96020830184610af6565b9392505050565b60006020820190508181036000830152610dd981610bd8565b9050919050565b60006020820190508181036000830152610df981610bfb565b9050919050565b60006020820190508181036000830152610e1981610c41565b9050919050565b6000604082019050610e356000830184610ca6565b92915050565b6000604082019050610e506000830185610ce4565b610e5d6020830184610b72565b9392505050565b6000819050602082019050919050565b600081519050919050565b600081519050919050565b6000602082019050919050565b600082825260208201905092915050565b600081905092915050565b600082825260208201905092915050565b6000610ecf82611094565b9150610eda83611094565b9250817f7fffffffffffffffffffffffffffffffffffffffffffffffffffffffffffffff03831360008312151615610f1557610f14611139565b5b817f8000000000000000000000000000000000000000000000000000000000000000038312600083121615610f4d57610f4c611139565b5b828201905092915050565b6000610f63826110cb565b9150610f6e836110cb565b9250827fffffffffffffffffffffffffffffffffffffffffffffffffffffffffffffffff03821115610fa357610fa2611139565b5b828201905092915050565b6000610fb982611094565b9150610fc483611094565b9250827f800000000000000000000000000000000000000000000000000000000000000001821260008412151615610fff57610ffe611139565b5b827f7fffffffffffffffffffffffffffffffffffffffffffffffffffffffffffffff01821360008412161561103757611036611139565b5b828203905092915050565b600061104d826110cb565b9150611058836110cb565b92508282101561106b5761106a611139565b5b828203905092915050565b6000611081826110ab565b9050919050565b60008115159050919050565b6000819050919050565b60008160000b9050919050565b600073ffffffffffffffffffffffffffffffffffffffff82169050919050565b6000819050919050565b60005b838110156110f35780820151818401526020810190506110d8565b83811115611102576000848401525b50505050565b6000611113826110cb565b915061111e836110cb565b92508261112e5761112d611168565b5b828206905092915050565b7f4e487b7100000000000000000000000000000000000000000000000000000000600052601160045260246000fd5b7f4e487b7100000000000000000000000000000000000000000000000000000000600052601260045260246000fd5b6000601f19601f8301169050919050565b7f5761697420356d2c206d616e0000000000000000000000000000000000000000600082015250565b7f4661696c656420746f207769746864726177206d6f6e65792066726f6d20636f60008201527f6e74726163742e00000000000000000000000000000000000000000000000000602082015250565b50565b7f5472796e61207769746864726177206d6f7265206d6f6e6579207468616e206360008201527f6f6e7472616374206861732e000000000000000000000000000000000000000060208201525056fea264697066735822122042d985c653a87202f680dfa32cb0c0ec8f5ae747059236ab3c483b94eef1e02564736f6c63430008040033",
  "linkReferences": {},
  "deployedLinkReferences": {}
}